{
  "contractName": "Storage",
  "abi": [
    {
      "inputs": [],
      "stateMutability": "nonpayable",
      "type": "constructor"
    },
    {
      "anonymous": false,
      "inputs": [
        {
          "indexed": false,
          "internalType": "address",
          "name": "_from",
          "type": "address"
        },
        {
          "indexed": false,
          "internalType": "uint256",
          "name": "_amount",
          "type": "uint256"
        },
        {
          "indexed": false,
          "internalType": "bytes32",
          "name": "message",
          "type": "bytes32"
        }
      ],
      "name": "Deposit",
      "type": "event"
    },
    {
      "anonymous": false,
      "inputs": [
        {
          "indexed": false,
          "internalType": "address",
          "name": "_to",
          "type": "address"
        },
        {
          "indexed": false,
          "internalType": "uint256",
          "name": "_amount",
          "type": "uint256"
        },
        {
          "indexed": false,
          "internalType": "bytes32",
          "name": "message",
          "type": "bytes32"
        }
      ],
      "name": "Withdrawal",
      "type": "event"
    },
    {
      "inputs": [],
      "name": "owner",
      "outputs": [
        {
          "internalType": "address",
          "name": "",
          "type": "address"
        }
      ],
      "stateMutability": "view",
      "type": "function",
      "constant": true
    },
    {
      "inputs": [],
      "name": "deposit",
      "outputs": [],
      "stateMutability": "payable",
      "type": "function",
      "payable": true
    },
    {
      "inputs": [
        {
          "internalType": "uint256",
          "name": "_amount",
          "type": "uint256"
        }
      ],
      "name": "withdraw",
      "outputs": [],
      "stateMutability": "payable",
      "type": "function",
      "payable": true
    },
    {
      "inputs": [],
      "name": "viewBalance",
      "outputs": [
        {
          "internalType": "uint256",
          "name": "",
          "type": "uint256"
        }
      ],
      "stateMutability": "view",
      "type": "function",
      "constant": true
    }
  ],
  "bytecode": "0x608060405234801561001057600080fd5b5033600160006101000a81548173ffffffffffffffffffffffffffffffffffffffff021916908373ffffffffffffffffffffffffffffffffffffffff160217905550610651806100616000396000f3fe60806040526004361061003f5760003560e01c80632e1a7d4d146100445780633ff1e05b146100605780638da5cb5b1461008b578063d0e30db0146100b6575b600080fd5b61005e60048036038101906100599190610356565b6100c0565b005b34801561006c57600080fd5b5061007561021f565b6040516100829190610392565b60405180910390f35b34801561009757600080fd5b506100a0610265565b6040516100ad91906103ee565b60405180910390f35b6100be61028b565b005b6000803373ffffffffffffffffffffffffffffffffffffffff1673ffffffffffffffffffffffffffffffffffffffff16815260200190815260200160002054811115610141576040517f08c379a00000000000000000000000000000000000000000000000000000000081526004016101389061048c565b60405180910390fd5b60003390508073ffffffffffffffffffffffffffffffffffffffff166108fc839081150290604051600060405180830381858888f1935050505015801561018c573d6000803e3d6000fd5b50816000803373ffffffffffffffffffffffffffffffffffffffff1673ffffffffffffffffffffffffffffffffffffffff16815260200190815260200160002060008282546101db91906104db565b925050819055507f806bc37112176c187cccea4249aea74827b609b5e40d595301442638bfd573673383604051610213929190610535565b60405180910390a15050565b60008060003373ffffffffffffffffffffffffffffffffffffffff1673ffffffffffffffffffffffffffffffffffffffff16815260200190815260200160002054905090565b600160009054906101000a900473ffffffffffffffffffffffffffffffffffffffff1681565b346000803373ffffffffffffffffffffffffffffffffffffffff1673ffffffffffffffffffffffffffffffffffffffff16815260200190815260200160002060008282546102d9919061056a565b925050819055507f1a771fe656018364a9369da21954bb3081cb08b0196c27e43ca59c7cae87273733346040516103119291906105e6565b60405180910390a1565b600080fd5b6000819050919050565b61033381610320565b811461033e57600080fd5b50565b6000813590506103508161032a565b92915050565b60006020828403121561036c5761036b61031b565b5b600061037a84828501610341565b91505092915050565b61038c81610320565b82525050565b60006020820190506103a76000830184610383565b92915050565b600073ffffffffffffffffffffffffffffffffffffffff82169050919050565b60006103d8826103ad565b9050919050565b6103e8816103cd565b82525050565b600060208201905061040360008301846103df565b92915050565b600082825260208201905092915050565b7f596f7520646f6e2774206861766520656e6f7567682062616c616e636520666f60008201527f7220746869730000000000000000000000000000000000000000000000000000602082015250565b6000610476602683610409565b91506104818261041a565b604082019050919050565b600060208201905081810360008301526104a581610469565b9050919050565b7f4e487b7100000000000000000000000000000000000000000000000000000000600052601160045260246000fd5b60006104e682610320565b91506104f183610320565b925082821015610504576105036104ac565b5b828203905092915050565b7f5769746864726177616c207375636365737366756c2100000000000000000000815250565b600060608201905061054a60008301856103df565b6105576020830184610383565b6105636040830161050f565b9392505050565b600061057582610320565b915061058083610320565b9250827fffffffffffffffffffffffffffffffffffffffffffffffffffffffffffffffff038211156105b5576105b46104ac565b5b828201905092915050565b7f4465706f736974207375636365737366756c2100000000000000000000000000815250565b60006060820190506105fb60008301856103df565b6106086020830184610383565b610614604083016105c0565b939250505056fea26469706673582212207a0bcd41302744000c087b4178859f69db46282a298bf9d1d684fb59304cb44664736f6c634300080f0033",
  "immutableReferences": {},
  "source": "pragma solidity ^0.8.15;\r\n\r\ncontract Storage {\r\n    mapping(address => uint256) balances;\r\n    address public owner;\r\n    event Deposit(address _from, uint256 _amount, bytes32 message);\r\n    event Withdrawal(address _to, uint256 _amount, bytes32 message);\r\n\r\n    constructor() {\r\n        owner = msg.sender;\r\n    }\r\n\r\n    function deposit() external payable {\r\n        balances[msg.sender] += msg.value;\r\n        emit Deposit(msg.sender, msg.value, \"Deposit successful!\");\r\n    }\r\n\r\n    function withdraw(uint256 _amount) external payable {\r\n        require(\r\n            _amount <= balances[msg.sender],\r\n            \"You don't have enough balance for this\"\r\n        );\r\n        address payable _account = payable(msg.sender);\r\n        _account.transfer(_amount);\r\n        balances[msg.sender] -= _amount;\r\n        emit Withdrawal(msg.sender, _amount, \"Withdrawal successful!\");\r\n    }\r\n\r\n    function viewBalance() external view returns (uint256) {\r\n        return balances[msg.sender];\r\n    }\r\n}\r\n",
  "sourcePath": "D:\\VSCode\\blockchain\\simple-storage\\contracts\\Storage.sol",
  "compiler": {
    "name": "solc",
    "version": "0.8.15+commit.e14f2714.Emscripten.clang"
  },
  "schemaVersion": "3.4.8",
  "updatedAt": "2022-08-05T15:14:25.377Z",
  "networkType": "ethereum",
  "devdoc": {
    "kind": "dev",
    "methods": {},
    "version": 1
  },
  "userdoc": {
    "kind": "user",
    "methods": {},
    "version": 1
  }
}