{
  "contractName": "Storage",
  "abi": [
    {
      "inputs": [],
      "stateMutability": "nonpayable",
      "type": "constructor"
    },
    {
      "anonymous": false,
      "inputs": [
        {
          "indexed": true,
          "internalType": "address",
          "name": "_from",
          "type": "address"
        },
        {
          "indexed": true,
          "internalType": "uint256",
          "name": "_amount",
          "type": "uint256"
        },
        {
          "indexed": false,
          "internalType": "bytes32",
          "name": "message",
          "type": "bytes32"
        }
      ],
      "name": "Deposit",
      "type": "event"
    },
    {
      "anonymous": false,
      "inputs": [
        {
          "indexed": true,
          "internalType": "address",
          "name": "_to",
          "type": "address"
        },
        {
          "indexed": true,
          "internalType": "uint256",
          "name": "_amount",
          "type": "uint256"
        },
        {
          "indexed": false,
          "internalType": "bytes32",
          "name": "message",
          "type": "bytes32"
        }
      ],
      "name": "Withdrawal",
      "type": "event"
    },
    {
      "inputs": [],
      "name": "owner",
      "outputs": [
        {
          "internalType": "address",
          "name": "",
          "type": "address"
        }
      ],
      "stateMutability": "view",
      "type": "function",
      "constant": true
    },
    {
      "inputs": [],
      "name": "deposit",
      "outputs": [],
      "stateMutability": "payable",
      "type": "function",
      "payable": true
    },
    {
      "inputs": [
        {
          "internalType": "uint256",
          "name": "_amount",
          "type": "uint256"
        }
      ],
      "name": "withdraw",
      "outputs": [],
      "stateMutability": "payable",
      "type": "function",
      "payable": true
    },
    {
      "inputs": [],
      "name": "viewBalance",
      "outputs": [
        {
          "internalType": "uint256",
          "name": "",
          "type": "uint256"
        }
      ],
      "stateMutability": "view",
      "type": "function",
      "constant": true
    }
  ],
  "bytecode": "0x608060405234801561001057600080fd5b5033600160006101000a81548173ffffffffffffffffffffffffffffffffffffffff021916908373ffffffffffffffffffffffffffffffffffffffff160217905550610641806100616000396000f3fe60806040526004361061003f5760003560e01c80632e1a7d4d146100445780633ff1e05b146100605780638da5cb5b1461008b578063d0e30db0146100b6575b600080fd5b61005e6004803603810190610059919061037e565b6100c0565b005b34801561006c57600080fd5b50610075610233565b60405161008291906103ba565b60405180910390f35b34801561009757600080fd5b506100a0610279565b6040516100ad9190610416565b60405180910390f35b6100be61029f565b005b6000803373ffffffffffffffffffffffffffffffffffffffff1673ffffffffffffffffffffffffffffffffffffffff16815260200190815260200160002054811115610141576040517f08c379a0000000000000000000000000000000000000000000000000000000008152600401610138906104b4565b60405180910390fd5b60003390508073ffffffffffffffffffffffffffffffffffffffff166108fc839081150290604051600060405180830381858888f1935050505015801561018c573d6000803e3d6000fd5b50816000803373ffffffffffffffffffffffffffffffffffffffff1673ffffffffffffffffffffffffffffffffffffffff16815260200190815260200160002060008282546101db9190610503565b92505081905550813373ffffffffffffffffffffffffffffffffffffffff167f806bc37112176c187cccea4249aea74827b609b5e40d595301442638bfd573676040516102279061055d565b60405180910390a35050565b60008060003373ffffffffffffffffffffffffffffffffffffffff1673ffffffffffffffffffffffffffffffffffffffff16815260200190815260200160002054905090565b600160009054906101000a900473ffffffffffffffffffffffffffffffffffffffff1681565b346000803373ffffffffffffffffffffffffffffffffffffffff1673ffffffffffffffffffffffffffffffffffffffff16815260200190815260200160002060008282546102ed9190610576565b92505081905550343373ffffffffffffffffffffffffffffffffffffffff167f1a771fe656018364a9369da21954bb3081cb08b0196c27e43ca59c7cae872737604051610339906105f2565b60405180910390a3565b600080fd5b6000819050919050565b61035b81610348565b811461036657600080fd5b50565b60008135905061037881610352565b92915050565b60006020828403121561039457610393610343565b5b60006103a284828501610369565b91505092915050565b6103b481610348565b82525050565b60006020820190506103cf60008301846103ab565b92915050565b600073ffffffffffffffffffffffffffffffffffffffff82169050919050565b6000610400826103d5565b9050919050565b610410816103f5565b82525050565b600060208201905061042b6000830184610407565b92915050565b600082825260208201905092915050565b7f596f7520646f6e2774206861766520656e6f7567682062616c616e636520666f60008201527f7220746869730000000000000000000000000000000000000000000000000000602082015250565b600061049e602683610431565b91506104a982610442565b604082019050919050565b600060208201905081810360008301526104cd81610491565b9050919050565b7f4e487b7100000000000000000000000000000000000000000000000000000000600052601160045260246000fd5b600061050e82610348565b915061051983610348565b92508282101561052c5761052b6104d4565b5b828203905092915050565b7f5769746864726177616c207375636365737366756c2100000000000000000000815250565b600060208201905061057160008301610537565b919050565b600061058182610348565b915061058c83610348565b9250827fffffffffffffffffffffffffffffffffffffffffffffffffffffffffffffffff038211156105c1576105c06104d4565b5b828201905092915050565b7f4465706f736974207375636365737366756c2100000000000000000000000000815250565b6000602082019050610606600083016105cc565b91905056fea2646970667358221220f049e232196600457424d07bfa21428746e299adb37fe400598e2098574d9a3b64736f6c634300080f0033",
  "immutableReferences": {},
  "source": "pragma solidity ^0.8.15;\r\n\r\ncontract Storage {\r\n    mapping(address => uint256) balances;\r\n    address public owner;\r\n    event Deposit(\r\n        address indexed _from,\r\n        uint256 indexed _amount,\r\n        bytes32 message\r\n    );\r\n    event Withdrawal(\r\n        address indexed _to,\r\n        uint256 indexed _amount,\r\n        bytes32 message\r\n    );\r\n\r\n    constructor() {\r\n        owner = msg.sender;\r\n    }\r\n\r\n    function deposit() external payable {\r\n        balances[msg.sender] += msg.value;\r\n        emit Deposit(msg.sender, msg.value, \"Deposit successful!\");\r\n    }\r\n\r\n    function withdraw(uint256 _amount) external payable {\r\n        require(\r\n            _amount <= balances[msg.sender],\r\n            \"You don't have enough balance for this\"\r\n        );\r\n        address payable _account = payable(msg.sender);\r\n        _account.transfer(_amount);\r\n        balances[msg.sender] -= _amount;\r\n        emit Withdrawal(msg.sender, _amount, \"Withdrawal successful!\");\r\n    }\r\n\r\n    function viewBalance() external view returns (uint256) {\r\n        return balances[msg.sender];\r\n    }\r\n}\r\n",
  "sourcePath": "D:\\VSCode\\blockchain\\simple-storage\\contracts\\Storage.sol",
  "compiler": {
    "name": "solc",
    "version": "0.8.15+commit.e14f2714.Emscripten.clang"
  },
  "schemaVersion": "3.4.8",
  "updatedAt": "2022-09-04T03:39:05.662Z",
  "networkType": "ethereum",
  "devdoc": {
    "kind": "dev",
    "methods": {},
    "version": 1
  },
  "userdoc": {
    "kind": "user",
    "methods": {},
    "version": 1
  }
}